S01B00004763634170706C69636174696F6E315F365F322E7372656331
S214080000D008002049010800D1010800D1010800E5
S214080010D1010800D1010800D10108000000000045
S214080020000000000000000000000000D1010800E9
S214080030D101080000000000D1010800D101080025
S214080040D1010800D1010800D1010800D10108003B
S214080050D1010800D1010800D1010800D10108002B
S214080060E90B0800D101080000000000D1010800D3
S214080070A902080019030800E102080000000000B1
S21408008000000000D1010800D1010800D1010800D5
S214080090D1010800D1010800D1010800D1010800EB
S2140800A0D101080000000000D1010800B50A0800C8
S2140800B0D1010800D1010800D1010800D1010800CB
S2140800C0D1010800D1010800D1010800D1010800BB
S2140800D0D1010800D1010800D1010800D1010800AB
S2140800E0D1010800D1010800D1010800D10108009B
S2140800F0D101080010B5054C237833B9044B13B169
S2140801000448AFF300800123237010BD3804002094
S21408011000000000A41D080008B5064B1BB10648E1
S2140801200649AFF300800648036813B1054B03B1D0
S214080130984708BD00000000A41D08003C040020E5
S214080140A41D08000000000080B582B000AF174B61
S2140801507B60174B3B607A683B689A420CD007E096
S2140801603B681A1D3A607A68111D796012681A6031
S2140801703A68104B9A42F3D30F4B3B6004E03B6857
S2140801801A1D3A6000221A603A680C4B9A42F6D357
S2140801900B4B7B600B4A7B6823F0604323F07F039E
S2140801A09360094B9847094B9847FEE7A41D08003B
S2140801B0000000203804002038040020D004002066
S2140801C00000080000ED00E00117080079030800A9
S2140801D080B400AFFEE700BF80B400AF2A4B4FF4F0
S2140801E080621A60294B4FF480621A60284B1B6A9B
S2140801F003F08073002B09D1254B264A1A6200BFEC
S214080200234B9B6E03F00103002BF9D0204B224AA8
S2140802101A6200BF1E4B9B6E03F48033002BF9D086
S2140802201B4B1B4A126B22F0030242F001021A63B0
S21408023000BF174B9B6E03F00803002BF9D0144B36
S214080240164A9A6200BF124B9B6E03F00203002BFD
S214080250F9D00F4B11221A6300BF0D4B9B6E03F0AB
S2140802600803002BF9D00A4B12221A6300BF084B6A
S2140802709B6E03F00803002BF9D0094B094A1A6055
S214080280BD465DF8047B7047000A0E40000C0E4021
S21408029000060E400908370009083701013F0D20FF
S2140802A00000002000BD010580B400AF094BDB6CE0
S2140802B003F00063002B09D0074B1B685A1C064B3B
S2140802C01A60064B1B685A1C044B1A60BD465DF83C
S2140802D0047B704700100E40A4040020AC040020E5
S2140802E080B400AF094BDB6C03F48073002B09D095
S2140802F0074B1B685A1C064B1A60064B1B685A1C91
S214080300044B1A60BD465DF8047B704700140E4027
S214080310B8040020A804002080B483B000AF134BB4
S214080320DB6C7B607B6803F00073002B0CD0104BF3
S2140803301B78DBB2002B03D00D4B00221A7010E09E
S2140803400B4B01221A700CE07B6803F08053002BDD
S21408035007D0084B1B78DBB2002B02D1054B0122D5
S2140803601A700C37BD465DF8047B704700120E40C5
S214080370BD040020BC04002080B500AF1C4B984785
S2140803801C4B98471C4B98471C4B98471C4B984748
S2140803901C4B98471C4807211C4B98471C481021A3
S2140803A01A4B98471B4B1B4A526842F400425A6045
S2140803B0194B00221A70194B00221A70184B9847CE
S2140803C00346002B12D017480E21104B9847164BA1
S2140803D000221A70154B1A68154B1B6810461946EA
S2140803E0144B98470D4B00221A70E7E7E6E700BF64
S2140803F0D9010800BD04080011070800590A0800BA
S214080400C9080800650E0800C81B0800BD0C0800CF
S214080410D01B0800501A0E40BC040020BE04002062
S214080420FD0C0800E41B0800C0040020CC040020D3
S214080430C40400204109080080B483B000AF034616
S214080440FB71084B97F907205209F97901F01F014B
S214080450012000FA01F143F822100C37BD465DF87A
S214080460047B704700E100E080B483B000AF034629
S2140804703960FB7197F90730002B0BDA0D49FB79C9
S21408048003F00F03043B3A68D2B21201D2B20B440F
S2140804901A7609E0084997F907303A68D2B2120185
S2140804A0D2B20B4483F800230C37BD465DF8047BB4
S2140804B0704700BF00ED00E000E100E080B500AF47
S2140804C08D4B8D4A126942F400621A618A4B8A4A39
S2140804D0126942F400521A61874B874A126942F43D
S2140804E080521A61844B844A126942F480421A6127
S2140804F0824B824A126842F000621A607F4B7F4A3B
S214080500526942F000625A617C4B7C4A126E42F095
S21408051000621A66794B794AD2F8B02042F0006237
S214080520C3F8B020754B754AD2F8C02042F0006276
S214080530C3F8C020714B714AD2F8D42042F000624A
S214080540C3F8D4206D4B6D4A126C42F000621A64F0
S2140805500C206B4B98476B4B6A4A126842F48072C1
S2140805601A60684B674A526942F480725A61654B52
S214080570644A126E42F480721A66624B614AD2F876
S214080580B02042F48072C3F8B0205E4B5D4AD2F8C1
S214080590C02042F48072C3F8C0205A4B594AD2F899
S2140805A0D42042F48072C3F8D420564B554A126CB5
S2140805B042F480721A640E20514B9847514B514AA8
S2140805C0126842F080021A604E4B4E4A126942F098
S2140805D080021A614B4B4B4A126E42F080021A6632
S2140805E0494B494A526842F480025A60464B464A8A
S2140805F0126F42F480021A67434B434A126942F468
S21408060080021A61404B404A126E42F480021A6613
S2140806103D4B3D4A526842F400125A603A4B3A4AF9
S214080620126F42F400121A67374B374A126942F4BF
S21408063000121A61344B344A126E42F400121A66DB
S214080640314B314A126842F400021A602E4B2E4A89
S214080650126942F400021A612B4B2B4A126E42F4BE
S21408066000021A66284B284A126842F080721A60FE
S214080670254B254A126942F080721A61224B224A9B
S214080680126E42F080721A661F4B1F4A126842F0BA
S21408069000721A601C4B1C4A526942F000725A617A
S2140806A0194B194A126E42F000721A66164B164A11
S2140806B0D2F8B02042F00072C3F8B020124B124AAB
S2140806C0D2F8C02042F00072C3F8C0200E4B0E4A83
S2140806D0D2F8D42042F00072C3F8D4200A4B0A4A53
S2140806E0126C42F000721A640D20054B98470820D9
S2140806F00121064B984780BD00060E4000100E40AC
S2140807003904080000140E4000120E406904080060
S21408071080B500AF144B144AD2F8002142F01002FC
S214080720C3F80021114B0A22C3F880220F4B0A2275
S214080730C3F8A02204204FF4CD610D4B984704203F
S21408074064210C4B984705204FF4CD61084B984719
S21408075005206421074B9847044B20225A60034B18
S21408076010225A6080BD00BF00060E4000400940B7
S21408077079070800C507080080B483B000AF786022
S21408078039600F4BDA687B68012101FA03F31340DE
S214080790002B08D10A493A687B685B010B4403F5CD
S2140807A002735A6007E006493A687B685B010B44A7
S2140807B003F504731A600C37BD465DF8047B704772
S2140807C00040094080B483B000AF786039600F4BB2
S2140807D0DA687B68012101FA03F31340002B07D17E
S2140807E00A493A687B6810335B010B445A6007E095
S2140807F006493A687B685B010B4403F502731A6086
S2140808000C37BD465DF8047B704700BF00400940C2
S21408081090B583B000AF78603960254B7868984704
S21408082002460B46234C104619461DA3D3E900235F
S214080830A04702460B46204C104619461AA3D3E991
S2140808400023A04702460B461C4C10461946A047F4
S2140808500346042019461A4B9847154B386898479C
S21408086002460B46134C104619460DA3D3E900233F
S214080870A04702460B46134C0BA1D1E90001A0473E
S21408088002460B460D4C10461946A047034605205F
S21408089019460B4B98470C37BD4690BDAFF3008002
S2140808A0713D0AD7A37003400000000000C05E40F8
S2140808B0C1110800E1140800290F0800B116080045
S2140808C0C5070800250F080080B500AF00200021E6
S2140808D0184B9847184B4FF400021A634FF47A7077
S2140808E0164B984764206421124B9847124B4FF4D6
S2140808F000025A634FF47A70104B98476FF0630003
S2140809006FF063010B4B98470B4B4FF400021A63CA
S2140809104FF47A70094B984700200021054B9847FA
S214080920054B4FF400025A6340F6B830034B98471D
S21408093080BD00BF1108080000120E40D90A080042
S21408094080B584B000AF786039602D4B1B78DBB279
S214080950012B04D12B4B6FF045021A6002E0294B9D
S21408096046221A60284B1B78DBB2012B04D1274B92
S2140809706FF045021A6002E0244B46221A600023F4
S214080980FB730023BB73224B00221A60214B002204
S2140809901A600023BB601EE01E4B1A683B689A422A
S2140809A004D31A4B00221A600123FB73184B1A68EB
S2140809B07B689A4204D3134B00221A600123BB7348
S2140809C0104B1A68114B1B6810461946124B98476D
S2140809D0BB680133BB60FB7B002B02D0BB7B002BC4
S2140809E003D1BA680D4B9A42D6DD002000210A4B87
S2140809F098470B4826210B4B98471037BD4680BDB5
S214080A00C9040020B4040020C8040020B004002054
S214080A10AC040020A8040020110808009F860100E6
S214080A20F41B0800BD0C080080B483B000AF034672
S214080A30FB71084B97F907205209F97901F01F0155
S214080A40012000FA01F143F822100C37BD465DF884
S214080A50047B704700E100E080B500AF014B984783
S214080A6080BD00BF690A080080B500AF0E4B0E4A6D
S214080A70126942F000621A610C4B02221A600B4B94
S214080A804FF0FF329A62094B1B6A084B44F2040285
S214080A905A60064B42F21072DA611B20044B9847E4
S214080AA0024B10225A6280BD00060E400000084025
S214080AB0290A080080B400AF054B1B6A044B0222C3
S214080AC01A60044B01221A70BD465DF8047B704715
S214080AD0000008405404002080B483B000AF78605B
S214080AE00B497A681346DB009B1A9B001344CB61BC
S214080AF0074B05221A6000BF064B1B78002BFBD05D
S214080B00044B00221A700C37BD465DF8047B70470C
S214080B10000008405404002080B483B000AF0346A9
S214080B20FB71084B97F907205209F97901F01F0164
S214080B30012000FA01F143F822100C37BD465DF893
S214080B40047B704700E100E080B485B000AF7860B1
S214080B507B6800221A700023FB600FE00D4B5B6970
S214080B6003F00103002B06D00A4B9B69DAB27B68B8
S214080B701A70002307E0FB680133FB60FA68064B2F
S214080B809A42EBDD012318461437BD465DF8047B10
S214080B90704700BF00080E409F86010080B485B0ED
S214080BA000AF0346FB710023FB600DE00C4B5B694E
S214080BB003F00203002B04D0094BFA79DA6100230C
S214080BC007E0FB680133FB60FA68064B9A42EDDDE6
S214080BD0012318461437BD465DF8047B704700BFEE
S214080BE000080E409F86010080B582B000AF294BF2
S214080BF01B6903F00103002B49D0FB1D1846264B42
S214080C0098470346002B00D041E0FB791846234B53
S214080C109847234B1B68452B0CD922481B21224B8F
S214080C209847224800214622214B98471C4B002211
S214080C301A602CE01A4B1B68F9791C4AD154184BD9
S214080C401B681A4AD35CDBB20A2B1BD1194816213B
S214080C50154B9847124B1B689BB214481946124B03
S214080C6098470A200D4B98470D4B1B680F481946A6
S214080C70114B98470D48002146220D4B9847084BC4
S214080C8000221A60064B1B685A1C054B1A60083768
S214080C90BD4680BD00080E40490B08009D0B0800A5
S214080CA0A00400201C1C0800BD0C080058040020E6
S214080CB03D180800381C0800290D080080B584B0C7
S214080CC000AF78600B467B800023FB600DE000BF1A
S214080CD0FB687A6813441B781846074B9847034600
S214080CE0002BF5D1FB680133FB607A88FB689A42D3
S214080CF0EDDC1037BD4680BD9D0B080080B500AF03
S214080D00064B1B78DBB2002B05D005480521054BA2
S214080D109847012300E00023184680BDBE04002043
S214080D20501C0800BD0C080080B598B000AF78606D
S214080D3039603D4B00221A703C4B00221A70002383
S214080D403B6107F114024223104600211A46384B2D
S214080D5098477B685A1C3B68013B07F11001084618
S214080D6011461A46334B984707F11003184632497E
S214080D70324B9847F865FB6D002B4FD000202E4964
S214080D802E4B9847B865BB6D002B47D0FB6D5A1C99
S214080D9007F10C03104619460A22294B98470346C2
S214080DA01A46284B1A60BB6D5A1C07F10C031046EE
S214080DB019460A22224B984703461A46224B1A60BF
S214080DC022480A21224B9847F86D224B984703463B
S214080DD09BB2F86D19461E4B9847FB6D1B782D2B5A
S214080DE002D1114B01221A701B480B21184B984749
S214080DF0B86D184B984703469BB2B86D1946144B06
S214080E009847BB6D1B782D2B02D1084B01221A7010
S214080E10124B01221A70124B01221A70012318462F
S214080E206037BD4680BD00BFC9040020C804002046
S214080E303D18080051170800581C0800311908000A
S214080E40B91A0800CC040020C40400205C1C080062
S214080E50BD0C0800D1180800681C0800C004002053
S214080E60BE04002080B582B000AF284B274A526CDB
S214080E7042F440725A64254B244A526842F440723F
S214080E805A60224B1B6F7B60204B204A116F7A6892
S214080E900A4022F440721A671C4B4FF440725A6696
S214080EA01B4B1B4A126942F480721A61194B194A85
S214080EB0126842F0AC021A60164B164A126A42F0E2
S214080EC02D021A62134B134A526842F400625A60A3
S214080ED0104A104BD3F8203143F4007343F0020352
S214080EE0C2F820310B4B4FF0FF32DA6008200A4B6D
S214080EF09847084B01229A60064B064A126842F049
S214080F0050021A600837BD4680BD00BF000E0E406E
S214080F1000060E4000080E40190B080081F000413C
S214080F2002E000BF83F0004330B54FEA41044FEAC1
S214080F30430594EA050F08BF90EA020F1FBF54EA5C
S214080F40000C55EA020C7FEA645C7FEA655C00F0F8
S214080F50E2804FEA5454D4EB5555B8BF6D420CDDC9
S214080F602C4480EA020281EA030382EA000083EA4C
S214080F70010180EA020281EA0303362D88BF30BDEC
S214080F8011F0004F4FEA01314FF4801C4CEA113142
S214080F9002D0404261EB410113F0004F4FEA0333A1
S214080FA04CEA133302D0524263EB430394EA050F2C
S214080FB000F0A780A4F10104D5F1200E0DDB02FA9B
S214080FC00EFC22FA05F2801841F1000103FA0EF22F
S214080FD0801843FA05F359410EE0A5F120050EF1F5
S214080FE0200E012A03FA0EFC28BF4CF0020C43FA26
S214080FF005F3C01851EBE37101F0004507D54FF033
S214081000000EDCF1000C7EEB00006EEB0101B1F582
S214081010801F1BD3B1F5001F0CD349085FEA3000C8
S2140810204FEA3C0C04F101044FEA445212F5800FD3
S21408103080F09A80BCF1004F08BF5FEA500C50F170
S214081040000041EB045141EA050130BD5FEA4C0C53
S214081050404141EB010111F4801FA4F10104E9D1DC
S21408106091F0000F04BF01460020B1FA81F308BFD3
S2140810702033A3F10B03B3F120020CDA0C3208DD9F
S21408108002F1140CC2F10C0201FA0CF021FA02F17A
S2140810900CE002F11402D8BFC2F1200C01FA02F1EA
S2140810A020FA0CFCDCBF41EA0C019040E41AA2BF0F
S2140810B001EB0451294330BD6FEA04041F3C1CDAD7
S2140810C00C340EDC04F11404C4F1200220FA04F0F7
S2140810D001FA02F340EA030021FA04F345EA0301A1
S2140810E030BDC4F10C04C4F1200220FA02F001FA63
S2140810F004F340EA0300294630BD21FA04F02946E5
S21408110030BD94F0000F83F4801306BF81F480117D
S2140811100134013D4EE77FEA645C18BF7FEA655CF0
S21408112029D094EA050F08BF90EA020F05D054EAC2
S214081130000C04BF1946104630BD91EA030F1EBFC7
S2140811400021002030BD5FEA545C05D140004941CB
S21408115028BF41F0004130BD14F580043CBF01F5BE
S214081160801130BD01F0004545F0FE4141F47001A4
S2140811704FF0000030BD7FEA645C1ABF194610467F
S2140811807FEA655C1CBF0B46024650EA013406BF80
S21408119052EA033591EA030F41F4002130BD00BF3F
S2140811A090F0000F04BF0021704730B54FF48064FC
S2140811B004F132044FF000054FF0000150E700BF7D
S2140811C090F0000F04BF0021704730B54FF48064DC
S2140811D004F1320410F0004548BF40424FF00001C9
S2140811E03EE700BF42004FEAE2014FEA31014FEA0C
S2140811F002701FBF12F07F4393F07F4F81F060515B
S214081200704792F0000F14BF93F07F4F704730B5C9
S2140812104FF4607401F0004521F0004120E700BF5C
S21408122050EA010208BF704730B54FF000050AE0E3
S21408123050EA010208BF704730B511F0004502D5E4
S214081240404261EB41014FF4806404F132045FEAE6
S214081250915C3FF4DCAE4FF003025FEADC0C18BF8B
S21408126003325FEADC0C18BF033202EBDC02C2F181
S214081270200300FA03FC20FA02F001FA03FE40EA13
S2140812800E0021FA02F11444C1E600BF70B54FF013
S214081290FF0C4CF4E06C1CEA11541DBF1CEA1355F5
S2140812A094EA0C0F95EA0C0F00F0DEF82C4481EA5D
S2140812B0030621EA4C5123EA4C5350EA013518BF7D
S2140812C052EA033541F4801143F4801338D0A0FB6A
S2140812D002CE4FF00005E1FB02E506F00042E0FB17
S2140812E003E54FF00006E1FB03569CF0000F18BF1D
S2140812F04EF0010EA4F1FF04B6F5007F64F54074C5
S21408130004D25FEA4E0E6D4146EB060642EAC62157
S21408131041EA55514FEAC52040EA5E504FEACE2EC4
S214081320B4F1FD0C88BFBCF5E06F1ED8BEF1004FC7
S21408133008BF5FEA500E50F1000041EB045170BD43
S21408134006F0004646EA010140EA020081EA030187
S214081350B4EB5C04C2BFD4EB0C0541EA045170BD83
S21408136041F480114FF0000E013C00F3AB8014F1FD
S214081370360FDEBF002001F0004170BDC4F1000446
S214081380203C35DA0C341BDC04F11404C4F12005C7
S21408139000FA05F320FA04F001FA05F240EA020022
S2140813A001F0004221F0004110EBD37021FA04F658
S2140813B042EB06015EEA430E08BF20EAD37070BD12
S2140813C0C4F10C04C4F1200500FA04F320FA05F071
S2140813D001FA04F240EA020001F0004110EBD37073
S2140813E041F100015EEA430E08BF20EAD37070BDE3
S2140813F0C4F1200500FA05F24EEA020E20FA04F3BC
S21408140001FA05F243EA020321FA04F001F000416A
S21408141021FA04F220EA020000EBD3705EEA430EDB
S21408142008BF20EAD37070BD94F0000F0FD101F00A
S2140814300046400041EB010111F4801F08BF013C43
S214081440F7D041EA060195F0000F18BF704703F081
S2140814500046520043EB030313F4801F08BF013D08
S214081460F7D043EA0603704794EA0C0F0CEA1355C4
S21408147018BF95EA0C0F0CD050EA410618BF52EA7E
S2140814804306D1D181EA030101F000414FF0000084
S21408149070BD50EA410606BF1046194652EA430692
S2140814A019D094EA0C0F02D150EA013613D195EA06
S2140814B00C0F05D152EA03361CBF104619460AD14E
S2140814C081EA030101F0004141F0FE4141F4700158
S2140814D04FF0000070BD41F0FE4141F4780170BD48
S2140814E070B54FF0FF0C4CF4E06C1CEA11541DBFAD
S2140814F01CEA135594EA0C0F95EA0C0F00F0A7F8AF
S214081500A4EB050481EA030E52EA03354FEA0131DB
S21408151000F088804FEA03334FF0805545EA1313EE
S21408152043EA12634FEA022245EA111545EA1065B6
S2140815304FEA00260EF000419D4208BF964244F14D
S214081540FD0404F5407402D25B084FEA3202B61A6C
S21408155065EB03055B084FEA32024FF480104FF440
S214081560002CB6EB020E75EB030E22BFB61A7546B4
S21408157040EA0C005B084FEA3202B6EB020E75EB47
S214081580030E22BFB61A754640EA5C005B084FEAAF
S2140815903202B6EB020E75EB030E22BFB61A75467C
S2140815A040EA9C005B084FEA3202B6EB020E75EB87
S2140815B0030E22BFB61A754640EADC0055EA060E48
S2140815C018D04FEA051545EA16754FEA06164FEA8B
S2140815D0C30343EA52734FEAC2025FEA1C1CC0D137
S2140815E011F4801F0BD141EA00014FF000004FF0C4
S2140815F0004CB6E711F4801F04BF01430020B4F185
S214081600FD0C88BFBCF5E06F3FF6AFAEB5EB030C3C
S21408161004BFB6EB020C5FEA500C50F1000041EB39
S214081620045170BD0EF0004E4EEA113114EB5C0406
S214081630C2BFD4EB0C0541EA045170BD41F48011D9
S2140816404FF0000E013C90E645EA060E8DE60CEAE1
S214081650135594EA0C0F08BF95EA0C0F3FF43BAFFE
S21408166094EA0C0F0AD150EA01347FF434AF95EAB5
S2140816700C0F7FF425AF104619462CE795EA0C0F99
S21408168006D152EA03353FF4FDAE1046194622E766
S21408169050EA410618BF52EA43067FF4C5AE50EA40
S2140816A041047FF40DAF52EA43057FF4EBAE12E730
S2140816B04FEA410212F5001215D211D56FF478736D
S2140816C0B3EB625212D94FEAC12343F0004343EA10
S2140816D0505311F0004F23FA02F018BF40427047EB
S2140816E04FF00000704750EA013005D111F0004075
S2140816F008BF6FF0004070474FF00000704700BF0B
S21408170070B50F4E0F4D761BB61007D0043D00245B
S214081710013455F8043F9847A642F9D10A4E0B4DB6
S21408172000F02EFB761BB61008D0043D00240134CA
S21408173055F8043F9847A642F9D170BD70BD00BF62
S2140817408C1D08008C1D0800941D08008C1D0800C0
S214081750844641EA000313F0030349D1403A23D3F1
S2140817600B6803604B6843608B688360CB68C36014
S2140817700B6903614B6943618B698361CB69C361FC
S2140817800B6A03624B6A43628B6A8362CB6AC362E4
S2140817900B6B03634B6B43638B6B8363CB6BC363CC
S2140817A040304031403ADBD230320BD30B6803600E
S2140817B04B6843608B688360CB68C3601030103119
S2140817C0103AF3D20C3205D351F8043B40F8043BE8
S2140817D0043AF9D2043208D0D2071CBF11F8013BEC
S2140817E000F8013B01D30B8803806046704700BFB2
S2140817F0082A13D38B07B1D010F00303AED0C3F179
S2140818000403D21ADB071CBF11F8013B00F8013BA2
S214081810A4D331F8023B20F8023B9FE7043AD9D319
S214081820013A11F8013B00F8013BF9D20B78037036
S2140818304B7843708B78837060467047F0B48407A3
S21408184043D0541E002A3ED0CDB2034603E0621EA3
S214081850002C38D0144603F8015B9A07F7D1032CFE
S2140818602AD9CDB245EA05250F2C45EA054515D9EE
S214081870A4F110073F0903F1100606EB07161A46EF
S214081880156055609560D5601032B242F8D104F004
S2140818900F040137032C03EB07130DD91E46224607
S2140818A0043A032A46F8045BFAD8221F22F00302F9
S2140818B00432134404F003042CB1C9B21C4403F8E0
S2140818C0011BA342FBD1F0BC704714460346C6E78B
S2140818D020F0030110F00300C0F1000051F8043BAB
S2140818E000F1040C4FEACC0C6FF000021CBF22FA81
S2140818F00CF213434FF0010C4CEA0C2C4CEA0C4C3F
S214081900A3EB0C0222EA030212EACC1204BF51F837
S214081910043B0430F4D013F0FF0F1FBF013013F45C
S2140819207F4F013013F47F0F18BF0130704700BF98
S214081930024A012312685C3200F002B83004002024
S214081940F0B420B3074617F8016B0D4601E0A6422F
S21408195016D015F8014B002CF9D1EEB13E4616F814
S214081960015B0C4600E073B114F8013BAB42FAD1B8
S2140819705DB100233B70166006463046F0BC7047E3
S21408198063B13846DEE73746E8E72E46F3E71068E1
S2140819900028D7D10646F0E71660EEE71760064639
S2140819A00370EAE72DE9F00F424C82B0D4F800C085
S2140819B001900E4600E02646344614F8015B0CEB10
S2140819C00500407800F0080000F0FF0A0028F2D171
S2140819D02D2D5BD02B2D04BF7578B41C33F010006A
S2140819E03CD09946BAF1000F0CBF6FF0004B4FF091
S2140819F0004BBBFBF9F8002709FB18BB38460CE080
S214081A00303DAB4219DD7E1C05D0404523D820D09A
S214081A1009FB0050012714F8015B0CEB05067678E5
S214081A2016F0040FECD116F0030606D0012E14BFEC
S214081A3057263726AD1BAB42E5DC7B1C15D0BAF122
S214081A40000F21D10AB1EFB9116002B0BDE8F00F5E
S214081A5070475D45DCDD4FF0FF37DCE7302D1AD0E8
S214081A60002BBED10A239946BCE70199BAF1000FAC
S214081A704FF022030CBF6FF000404FF000400B60A1
S214081A80002AE2D0611EDFE74042DBE7B41C757827
S214081A904FF0010AA2E7207800F0DF00582803D0AC
S214081AA0002B9ED108239CE71023657899460234BC
S214081AB098E700BF3404002030B4044C0D461346A3
S214081AC001462A46206830BCFFF76CBF3004002069
S214081AD0024B13B1024800F005B87047000000003A
S214081AE0F11A0800014600200246034600F018B81E
S214081AF038B5094D094C641BA41018BF05EB8405BE
S214081B0005D0013C55F8043D9847002CF9D1BDE8AE
S214081B10384000F03FB900BFA01D0800A41D08000B
S214081B20F0B5274C85B026680746D6F84841002CFD
S214081B3040D065681F2D1EDD224818B94FF0FF30CB
S214081B4005B0F0BD4FF4C870039102920193AFF34D
S214081B50008003990446029A019B0028EED0D6F826
S214081B6048510020256060600546C6F84841C4F81C
S214081B708801C4F88C013FB96B1C002002356360ED
S214081B8044F8251005B0F0BD0126AE4004EB8500EC
S214081B90C0F88820D4F88821022F42EA0602C4F842
S214081BA08821C0F80831E7D1D4F88C311E43C4F830
S214081BB08C61E1E706F5A674C6F84841B9E700BFA8
S214081BC0781C0800000000002323234F4E200A003C
S214081BD0232323496E697469616C697A696E670A9A
S214081BE0000000002323234E657720537065656444
S214081BF00A0000000A0A2D2D2D2D2D2D2D2D2D2DF8
S214081C0020457869742066726F6D20636F6E7472F3
S214081C106F6C6C6564447269766500002323232321
S214081C20546F6F206D7563682064617461207265F7
S214081C306365697665640A0023232323205061724E
S214081C4073696E6720537472696E67733A20000072
S214081C505365743A0A000000230000005370656557
S214081C60642053543A20000020537065656420446D
S214081C70523A2000430000000800002000202020E0
S214081C80202020202020282828282820202020201F
S214081C9020202020202020202020202020881010EF
S214081CA0101010101010101010101010100404044B
S214081CB00404040404040410101010101010414109
S214081CC041414141010101010101010101010101F7
S214081CD0010101010101010110101010101042420B
S214081CE042424242020202020202020202020202C7
S214081CF00202020202020202101010102000000067
S214081D0000000000000000000000000000000000C6
S214081D1000000000000000000000000000000000B6
S214081D2000000000000000000000000000000000A6
S214081D300000000000000000000000000000000096
S214081D400000000000000000000000000000000086
S214081D500000000000000000000000000000000076
S214081D600000000000000000000000000000000066
S214081D700000000000000000000000000000000056
S214081D80F8B500BFF8BC08BC9E467047D11A0800D4
S214081D9019010800F8B500BFF8BC08BC9E46704795
S208081DA0F500080035
S214081DA400093D000000000000000000F4020020C6
S214081DB45C030020C40300200000000000000000AC
S214081DC40000000000000000000000000000000002
S214081DD4000000000000000000000000741C08005A
S214081DE400000000000000000000000000000000E2
S214081DF400000000000000000000000000000000D2
S214081E0400000000000000000000000000000000C1
S214081E1400000000000000000000000000000000B1
S214081E2400000000000000000000000000000000A1
S214081E340000000000000000000000000000000091
S214081E440000000000000000000000000000000081
S214081E5401000000000000000E33CDAB34126DE61E
S214081E64ECDE05000B000000000000000000000087
S214081E740000000000000000000000000000000051
S214081E840000000000000000000000000000000041
S214081E940000000000000000000000000000000031
S214081EA40000000000000000000000000000000021
S20C0821D4080000207C1C08002E
S804080000F3
