:0200000280007C
:10000000A008002051010800D9010800D90108000A
:10001000D9010800D9010800D9010800000000003A
:10002000000000000000000000000000D9010800EE
:10003000D901080000000000D9010800D90108001A
:10004000D9010800D9010800D9010800D901080028
:10005000D9010800D9010800D9010800D901080018
:10006000A50B0800D901080000000000D901080014
:10007000B102080021030800E902080000000000A6
:1000800000000000D9010800D9010800D9010800CA
:10009000D9010800D9010800D9010800D9010800D8
:1000A000D901080000000000D9010800C50A0800B5
:1000B000D9010800D9010800D9010800D9010800B8
:1000C000D9010800D9010800D9010800D9010800A8
:1000D000D9010800D9010800D9010800D901080098
:1000E000D9010800D9010800D9010800D901080088
:1000F000D901080010B5054C237833B9044B13B16E
:100100000448AFF300800123237010BD38040020A1
:1001100000000000F01B0800084B10B51BB1084898
:100120000849AFF300800848036803B910BD074BC6
:10013000002BFBD0BDE81040184700BF00000000B6
:10014000F01B08003C040020F01B08000000000029
:1001500080B582B000AF174B7B60174B3B607A686D
:100160003B689A420CD007E03B681A1D3A607A68F7
:10017000111D796012681A603B68104A9342F3D3EC
:100180000F4B3B6004E03B681A1D3A6000221A6086
:100190003B680C4A9342F6D30B4B7B600B4A7B685F
:1001A00023F0604323F07F039360094B9847094B8A
:1001B0009847FEE7F01B08000000002038040020EC
:1001C000380400209C0400200000080000ED00E03E
:1001D000651608008103080080B400AFFEE700BF89
:1001E00080B400AF2A4B4FF480621A60294B4FF461
:1001F00080621A60284B1B6A03F08073002B09D1C0
:10020000254B264A1A6200BF234B9B6E03F0010365
:10021000002BF9D0204B224A1A6200BF1E4B9B6E66
:1002200003F48033002BF9D01B4A1B4B1B6B23F0CC
:10023000030343F00103136300BF174B9B6E03F0EE
:100240000803002BF9D0144B164A9A6200BF124BD8
:100250009B6E03F00203002BF9D00F4B11221A639F
:1002600000BF0D4B9B6E03F00803002BF9D00A4B27
:1002700012221A6300BF084B9B6E03F00803002B89
:10028000F9D0094B094A1A60BD465DF8047B7047F6
:10029000000A0E40000C0E4000060E400908370010
:1002A00009083701013F0D200000002000BD0105B5
:1002B00080B400AF094BDB6C03F00063002B09D066
:1002C000074B1B680133064A1360064B1B6801335A
:1002D000044A1360BD465DF8047B704700100E4071
:1002E0005C0400206404002080B400AF094BDB6C88
:1002F00003F48073002B09D0074B1B680133064AB7
:100300001360064B1B680133044A1360BD465DF859
:10031000047B704700140E4070040020600400202D
:1003200080B483B000AF134BDB6C7B607B6803F061
:100330000073002B0CD0104B1B78DBB2002B03D0CA
:100340000D4B00221A7010E00B4B01221A700CE0CA
:100350007B6803F08053002B07D0084B1B78DBB27F
:10036000002B02D1054B01221A700C37BD465DF8F7
:10037000047B704700120E407504002074040020B6
:1003800080B500AF1E4B98471E4B98471E4B9847B1
:100390001E4B98471E4B98471E4807211E4B9847F7
:1003A0001E4A1E4B5B6843F4004353601C4B002203
:1003B0001A701B4B1B78DBB2002B08D01948102198
:1003C000154B9847184B9847154B00221A70174B3E
:1003D00098470346002B11D015480E210E4B984725
:1003E000144B00221A70144B1A68144B1B681046E9
:1003F0001946134B9847134B00221A70D9E700BFD8
:10040000E10108007904080031070800690A0800C2
:10041000C90D0800441A0800650C0800501A0E4067
:10042000740400204C1A0800E9080800A50C080014
:10043000601A08007804002098040020900400202E
:10044000610908005404002080B483B000AF034663
:10045000FB71084997F907305B09FA7902F01F022E
:10046000012000FA02F241F823200C37BD465DF866
:10047000047B704700E100E080B500AFA44AA44BC4
:100480001B6943F400631361A14AA14B1B6943F448
:10049000005313619E4A9E4B1B6943F480531361C2
:1004A0009B4A9B4B1B6943F480431361994A994BC8
:1004B0001B6843F000631360964A964B5B6943F0F8
:1004C00000635361934A934B1B6E43F000631366C2
:1004D000904A904BD3F8B03043F00063C2F8B0308C
:1004E0008C4A8C4BD3F8C03043F00063C2F8C03064
:1004F000884A884BD3F8D43043F00063C2F8D43034
:10050000844A844B1B6C43F0006313640C20824BC1
:100510009847824A814B1B6843F4807313607F4A7B
:100520007E4B5B6943F4807353617C4A7B4B1B6E4B
:1005300043F480731366794A784BD3F8B03043F4B0
:100540008073C2F8B030754A744BD3F8C03043F4AE
:100550008073C2F8C030714A704BD3F8D43043F482
:100560008073C2F8D4306D4A6C4B1B6C43F48073BB
:1005700013640E20684B9847684A684B1B6843F029
:1005800080031360654A654B1B6943F08003136168
:10059000624A624B1B6E43F080031366604A604BF5
:1005A0005B6843F4800353605D4A5D4B1B6F43F40B
:1005B000800313675A4A5A4B1B6943F48003136143
:1005C000574A574B1B6E43F480031366544A544BEF
:1005D0005B6843F400135360514A514B1B6F43F463
:1005E000001313674E4A4E4B1B6943F4001313610B
:1005F0004B4A4B4B1B6E43F400131366484A484B5F
:100600001B6843F400031360454A454B1B6943F4E0
:1006100000031361424A424B1B6E43F4000313660E
:100620003F4A3F4B1B6843F0807313603C4A3C4B8E
:100630001B6943F080731361394A394B1B6E43F0D9
:1006400080731366364A364B1B6843F000731360A1
:10065000334A334B5B6943F000735361304A304B8C
:100660001B6E43F0007313662D4A2D4BD3F8B03048
:1006700043F00073C2F8B030294A294BD3F8C03098
:1006800043F00073C2F8C030254A254BD3F8D4306C
:1006900043F00073C2F8D430214A214B1B6C43F065
:1006A000007313640D201C4B98471D4A1C4B1B689C
:1006B00043F0805313601A4A194B5B6943F080532F
:1006C0005361174A164B1B6E43F080531366144A4E
:1006D000134BD3F8B03043F08053C2F8B030104A17
:1006E0000F4BD3F8C03043F08053C2F8C0300C4AEF
:1006F0000B4BD3F8D43043F08053C2F8D430084ABF
:10070000074B1B6C43F0805313640D200AE000BFBD
:1007100000060E4000100E404904080000140E4070
:1007200000120E40014B984780BD00BF49040800ED
:1007300080B500AF144A144BD3F8003143F01003D6
:10074000C2F80031114B0A22C3F880220F4B0A2253
:10075000C3F8A02204204FF4CD610D4B984704202C
:1007600064210C4B984705204FF4CD61084B984706
:1007700005206421074B9847044B20225A60034B05
:1007800010225A6080BD00BF00060E4000400940A4
:1007900099070800E507080080B483B000AF7860CF
:1007A00039600F4BDA687B68012101FA03F31340CB
:1007B000002B08D10A493A687B685B010B4403F5BA
:1007C00002735A6007E006493A687B685B010B4494
:1007D00003F504731A600C37BD465DF8047B70475F
:1007E0000040094080B483B000AF786039600F4B9F
:1007F000DA687B68012101FA03F31340002B07D16B
:100800000A493A687B6810335B010B445A6007E081
:1008100006493A687B685B010B4403F502731A6072
:100820000C37BD465DF8047B704700BF00400940AF
:1008300090B583B000AF78603960254B78689847F1
:1008400002460B46234C104619461DA3D3E900234C
:10085000A04702460B46204C104619461AA3D3E97E
:100860000023A04702460B46104619461B4B9847EB
:100870000346042019461A4B9847154B3868984789
:1008800002460B46134C104619460DA3D3E900232C
:10089000A04702460B46134C0BA1D1E90001A0472B
:1008A00002460B46104619460C4B98470346052056
:1008B00019460B4B98470C37BD4690BDAFF30080EF
:1008C000713D0AD7A37003400000000000C05E40E5
:1008D00025110800451408008D0E080015160800A3
:1008E000E5070800890E080080B500AF0020002150
:1008F000184B9847184B4FF400021A634FF47A7064
:10090000164B984764206421124B9847124B4FF4C2
:1009100000025A634FF47A70104B98476FF06300EF
:100920006FF063010B4B98470B4B4FF400021A63B7
:100930004FF47A70094B984700200021054B9847E7
:10094000054B4FF400025A6340F6B830034B98470A
:1009500080BD00BF3108080000120E40E90A0800FF
:1009600080B584B000AF786039602B4B1B78DBB268
:10097000012B04D1294B6FF045021A6002E0274B8E
:1009800046221A60264B1B78DBB2012B04D1254B83
:100990006FF045021A6002E0224B46221A600023E3
:1009A000FB730023BB73204B00221A601F4B0022F5
:1009B0001A600023BB601EE01C4B1A683B689A4219
:1009C00004D3184B00221A600123FB73164B1A68DC
:1009D0007B689A4204D3114B00221A600123BB7337
:1009E0000E4B1A680F4B1B6810461946104B984760
:1009F000BB680133BB60FB7B002B02D0BB7B002BB1
:100A000003D1BB680B4A9342D6DD00200021084B7E
:100A100098471037BD4680BD950400206C04002027
:100A20009404002068040020640400206004002076
:100A3000310808009F86010080B483B000AF0346F0
:100A4000FB71084997F907305B09FA7902F01F0238
:100A5000012000FA02F241F823200C37BD465DF870
:100A6000047B704700E100E080B500AF014B984780
:100A700080BD00BF790A080080B500AF0E4A0E4B5A
:100A80001B6943F0006313610C4B02221A600B4B8D
:100A90004FF0FF329A62094B1B6A084B44F2040282
:100AA0005A60064B42F21072DA611B20044B9847E1
:100AB000024B10225A6280BD00060E400000084022
:100AC000390A080080B400AF054B1B6A044B0222B0
:100AD0001A60044B01221A70BD465DF8047B704712
:100AE000000008405504002080B483B000AF786057
:100AF0000B497A681346DB009B1A9B001344CB61B9
:100B0000074B05221A6000BF064B1B78002BFBD059
:100B1000044B00221A700C37BD465DF8047B704709
:100B2000000008405504002080B483B000AF0346A5
:100B3000FB71084997F907305B09FA7902F01F0247
:100B4000012000FA02F241F823200C37BD465DF87F
:100B5000047B704700E100E080B485B000AF03463D
:100B6000FB710023FB600DE00C4B5B6903F002039B
:100B7000002B04D0094AFB79D361002307E0FB680E
:100B80000133FB60FB68064A9342EDDD0123184602
:100B90001437BD465DF8047B704700BF00080E4067
:100BA0009F86010080B582B000AF254B1B6903F022
:100BB0000103002B40D0224B9B69FB71204AFB793B
:100BC000D361204B1B68132B0CD91F481B211F4BD3
:100BD00098471F48002114221E4B9847194B0022AA
:100BE0001A6029E0174B1B681949FA79CA54154B4A
:100BF0001B68174AD35C0A2B19D117481621134BCF
:100C00009847104B1B689BB2114819460F4B9847E9
:100C10000A20124B98470E48114B98470C48002168
:100C200014220C4B9847074B00221A6004E0054B36
:100C30001B680133034A13600837BD4680BD00BFFF
:100C400000080E4058040020701A0800650C0800C7
:100C50007C040020B51608008C1A0800590B080007
:100C6000C90C080080B584B000AF78600B467B806B
:100C70000023FB600DE000BFFB687A6813441B781B
:100C80001846074B98470346002BF5D1FB68013304
:100C9000FB607A88FB689A42EDDC1037BD4680BD68
:100CA000590B080080B400AF064B1B78DBB2002B59
:100CB00001D0012300E000231846BD465DF8047B07
:100CC000704700BF5404002080B586B000AF786044
:100CD000304B00221A70304B00221A7078682F496E
:100CE0002F4B984778617B69002B4FD000202B4910
:100CF0002B4B984738613B69002B47D07B695A1CC6
:100D000007F10C03104619460A22264B9847034662
:100D10001A46254B1A603B695A1C07F10C03104612
:100D200019460A221F4B984703461A461F4B1A6062
:100D30001F480A211F4B984778691F4B9847034665
:100D40009BB2786919461B4B98477B691B782D2B02
:100D500002D1104B01221A7018480B21154B9847ED
:100D60003869154B984703469BB238691946114BB1
:100D700098473B691B782D2B02D1074B01221A7033
:100D80000F4B01221A700F4B01221A701837BD4603
:100D900080BD00BF9504002094040020A41A080020
:100DA000AD1708003D1908009804002090040020A9
:100DB000A81A0800650C080051170800B41A0800AA
:100DC000780400205404002080B582B000AF284A87
:100DD000274B5B6C43F440735364254A244B5B6898
:100DE00043F440735360224B1B6F7B602049204BC0
:100DF0001A6F7B68134023F440730B671C4B4FF44E
:100E000040725A661B4A1B4B1B6943F48073136183
:100E1000194A194B1B6843F0AC031360164A164B72
:100E20001B6A43F02D031362134A134B5B6843F4B0
:100E300000635360104A104BD3F8203143F4007321
:100E400043F00203C2F820310B4B4FF0FF32DA605F
:100E500008200A4B9847084B01229A60064A064B25
:100E60001B6843F0500313600837BD4680BD00BFC8
:100E7000000E0E4000060E4000080E40290B080030
:100E800081F0004102E000BF83F0004330B54FEA3B
:100E900041044FEA430594EA050F08BF90EA020FA8
:100EA0001FBF54EA000C55EA020C7FEA645C7FEA3B
:100EB000655C00F0E2804FEA5454D4EB5555B8BF5E
:100EC0006D420CDD2C4480EA020281EA030382EACF
:100ED000000083EA010180EA020281EA0303362D61
:100EE00088BF30BD11F0004F4FEA01314FF4801C34
:100EF0004CEA113102D0404261EB410113F0004F46
:100F00004FEA03334CEA133302D0524263EB4303FC
:100F100094EA050F00F0A780A4F10104D5F1200E9A
:100F20000DDB02FA0EFC22FA05F2801841F10001F5
:100F300003FA0EF2801843FA05F359410EE0A5F1C9
:100F400020050EF1200E012A03FA0EFC28BF4CF0FA
:100F5000020C43FA05F3C01851EBE37101F00045B0
:100F600007D54FF0000EDCF1000C7EEB00006EEBBD
:100F70000101B1F5801F1BD3B1F5001F0CD3490847
:100F80005FEA30004FEA3C0C04F101044FEA44529E
:100F900012F5800F80F09A80BCF1004F08BF5FEA25
:100FA000500C50F1000041EB045141EA050130BD05
:100FB0005FEA4C0C404141EB010111F4801FA4F1A8
:100FC0000104E9D191F0000F04BF01460020B1FAFD
:100FD00081F308BF2033A3F10B03B3F120020CDA35
:100FE0000C3208DD02F1140CC2F10C0201FA0CF013
:100FF00021FA02F10CE002F11402D8BFC2F1200C78
:1010000001FA02F120FA0CFCDCBF41EA0C0190402D
:10101000E41AA2BF01EB0451294330BD6FEA040476
:101020001F3C1CDA0C340EDC04F11404C4F1200261
:1010300020FA04F001FA02F340EA030021FA04F373
:1010400045EA030130BDC4F10C04C4F1200220FACA
:1010500002F001FA04F340EA0300294630BD21FA08
:1010600004F0294630BD94F0000F83F4801306BFCE
:1010700081F480110134013D4EE77FEA645C18BFC2
:101080007FEA655C29D094EA050F08BF90EA020F59
:1010900005D054EA000C04BF1946104630BD91EA51
:1010A000030F1EBF0021002030BD5FEA545C05D154
:1010B0004000494128BF41F0004130BD14F5800493
:1010C0003CBF01F5801130BD01F0004545F0FE4107
:1010D00041F470014FF0000030BD7FEA645C1ABF3C
:1010E000194610467FEA655C1CBF0B46024650EA73
:1010F000013406BF52EA033591EA030F41F400219F
:1011000030BD00BF90F0000F04BF0021704730B524
:101110004FF4806404F132044FF000054FF00001F9
:1011200050E700BF90F0000F04BF0021704730B5BA
:101130004FF4806404F1320410F0004548BF40428F
:101140004FF000013EE700BF42004FEAE2014FEAE4
:1011500031014FEA02701FBF12F07F4393F07F4FBF
:1011600081F06051704792F0000F14BF93F07F4FF1
:10117000704730B54FF4607401F0004521F0004134
:1011800020E700BF50EA010208BF704730B54FF0BA
:1011900000050AE050EA010208BF704730B511F0BF
:1011A000004502D5404261EB41014FF4806404F1F7
:1011B00032045FEA915C3FF4DCAE4FF003025FEA79
:1011C000DC0C18BF03325FEADC0C18BF033202EB01
:1011D000DC02C2F1200300FA03FC20FA02F001FA5B
:1011E00003FE40EA0E0021FA02F11444C1E600BFFA
:1011F00070B54FF0FF0C4CF4E06C1CEA11541DBFAD
:101200001CEA135594EA0C0F95EA0C0F00F0DEF877
:101210002C4481EA030621EA4C5123EA4C5350EA5C
:10122000013518BF52EA033541F4801143F48013AD
:1012300038D0A0FB02CE4FF00005E1FB02E506F03E
:101240000042E0FB03E54FF00006E1FB03569CF093
:10125000000F18BF4EF0010EA4F1FF04B6F5007F99
:1012600064F5407404D25FEA4E0E6D4146EB06060B
:1012700042EAC62141EA55514FEAC52040EA5E5094
:101280004FEACE2EB4F1FD0C88BFBCF5E06F1ED83E
:10129000BEF1004F08BF5FEA500E50F1000041EB75
:1012A000045170BD06F0004646EA010140EA020022
:1012B00081EA0301B4EB5C04C2BFD4EB0C0541EA44
:1012C000045170BD41F480114FF0000E013C00F359
:1012D000AB8014F1360FDEBF002001F0004170BD7D
:1012E000C4F10004203C35DA0C341BDC04F1140496
:1012F000C4F1200500FA05F320FA04F001FA05F222
:1013000040EA020001F0004221F0004110EBD370EE
:1013100021FA04F642EB06015EEA430E08BF20EA1A
:10132000D37070BDC4F10C04C4F1200500FA04F3BD
:1013300020FA05F001FA04F240EA020001F000414F
:1013400010EBD37041F100015EEA430E08BF20EAC2
:10135000D37070BDC4F1200500FA05F24EEA020E0A
:1013600020FA04F301FA05F243EA020321FA04F039
:1013700001F0004121FA04F220EA020000EBD370F0
:101380005EEA430E08BF20EAD37070BD94F0000FF0
:101390000FD101F00046400041EB010111F4801F24
:1013A00008BF013CF7D041EA060195F0000F18BFD5
:1013B000704703F00046520043EB030313F4801F11
:1013C00008BF013DF7D043EA0603704794EA0C0FCB
:1013D0000CEA135518BF95EA0C0F0CD050EA4106E1
:1013E00018BF52EA4306D1D181EA030101F000415E
:1013F0004FF0000070BD50EA410606BF1046194686
:1014000052EA430619D094EA0C0F02D150EA013691
:1014100013D195EA0C0F05D152EA03361CBF1046D2
:1014200019460AD181EA030101F0004141F0FE4171
:1014300041F470014FF0000070BD41F0FE4141F4F5
:10144000780170BD70B54FF0FF0C4CF4E06C1CEAF5
:1014500011541DBF1CEA135594EA0C0F95EA0C0FAA
:1014600000F0A7F8A4EB050481EA030E52EA033565
:101470004FEA013100F088804FEA03334FF0805586
:1014800045EA131343EA12634FEA022245EA1115B3
:1014900045EA10654FEA00260EF000419D4208BF64
:1014A000964244F1FD0404F5407402D25B084FEA11
:1014B0003202B61A65EB03055B084FEA32024FF4BD
:1014C00080104FF4002CB6EB020E75EB030E22BF1A
:1014D000B61A754640EA0C005B084FEA3202B6EBDA
:1014E000020E75EB030E22BFB61A754640EA5C0089
:1014F0005B084FEA3202B6EB020E75EB030E22BF19
:10150000B61A754640EA9C005B084FEA3202B6EB19
:10151000020E75EB030E22BFB61A754640EADC00D8
:1015200055EA060E18D04FEA051545EA16754FEA3A
:1015300006164FEAC30343EA52734FEAC2025FEA58
:101540001C1CC0D111F4801F0BD141EA00014FF0E7
:1015500000004FF0004CB6E711F4801F04BF0143B8
:101560000020B4F1FD0C88BFBCF5E06F3FF6AFAED4
:10157000B5EB030C04BFB6EB020C5FEA500C50F164
:10158000000041EB045170BD0EF0004E4EEA1131E7
:1015900014EB5C04C2BFD4EB0C0541EA045170BDEE
:1015A00041F480114FF0000E013C90E645EA060E32
:1015B0008DE60CEA135594EA0C0F08BF95EA0C0F60
:1015C0003FF43BAF94EA0C0F0AD150EA01347FF4A8
:1015D00034AF95EA0C0F7FF425AF104619462CE77F
:1015E00095EA0C0F06D152EA03353FF4FDAE1046E2
:1015F000194622E750EA410618BF52EA43067FF433
:10160000C5AE50EA41047FF40DAF52EA43057FF4C2
:10161000EBAE12E74FEA410212F5001215D211D5D6
:101620006FF47873B3EB625212D94FEAC12343F0DF
:10163000004343EA505311F0004F23FA02F018BF61
:10164000404270474FF00000704750EA013005D12A
:1016500011F0004008BF6FF0004070474FF00000ED
:10166000704700BF70B50F4E0F4D761BB61018BFF8
:10167000002405D0013455F8043B9847A642F9D11F
:101680000A4E0B4D00F0A2FA761BB61018BF0024CC
:1016900006D0013455F8043B9847A642F9D170BDF5
:1016A00070BD00BFD81B0800D81B0800E01B080055
:1016B000D81B080070B4840746D0541E002A41D0BD
:1016C000CDB2034602E0621EE4B3144603F8015BA8
:1016D0009A07F8D1032C2ED9CDB245EA05250F2C57
:1016E00045EA054519D9264603F11002103E0F2E92
:1016F00042F8105C42F80C5C42F8085C42F8045C6A
:1017000002F11002F2D8A4F1100222F00F0204F04C
:101710000F041032032C13440DD91E462246043AFE
:10172000032A46F8045BFAD8221F22F0030204328F
:10173000134404F003042CB1C9B21C4403F8011B88
:10174000A342FBD170BC704714460346C2E700BFFA
:1017500020F0030110F00300C0F1000051F8043B39
:1017600000F1040C4FEACC0C6FF000021CBF22FA0F
:101770000CF213434FF0010C4CEA0C2C4CEA0C4CCD
:10178000A3EB0C0222EA030212EACC1204BF51F8C6
:10179000043B0430F4D0C2F1000102EA0102B2FAC3
:1017A00082F2C2F11F0200EBD2007047024A01230D
:1017B00012685C3200F002B830040020F0B420B3AC
:1017C00007460D4617F8016B01E0A64216D015F842
:1017D000014B002CF9D1EEB13E460C4616F8015BE8
:1017E00000E073B114F8013BAB42FAD15DB10023C4
:1017F0003B70166006463046F0BC704763B1384611
:10180000DEE73746E8E72E46F3E710680028D7D131
:101810000646F0E71660EEE7176006460370EAE753
:101820002DE9F04F444C83460E46D4F800E000E02A
:101830002646344614F8015B0EEB0500407800F0B4
:10184000080000F0FF080028F2D12D2D4BD02B2DE1
:1018500004BF7578B41C1BB1102B60D09A4603E00E
:10186000302D54D00A239A46B8F1000F14BF4FF020
:1018700000406FF00040B0FBFAF90027BC460AFBBD
:1018800019000CE0303DAB4219DD7E1C05D0CC4583
:1018900024D821D00AFB0C5C012714F8015B0EEB65
:1018A0000506767816F0040FECD116F0030606D084
:1018B000012E0CBF37265726AD1BAB42E5DC7B1C47
:1018C00016D0C8F100008CEA000040444AB107B1CC
:1018D000611E1160BDE8F08F8542DBDD4FF0FF3700
:1018E000DBE7BDE8F08FB41C75784FF00108B2E774
:1018F000B8F1000F4FF0220314BF4FF000406FF01B
:101900000040CBF80030002AE2D1BDE8F08F237808
:1019100003F0DF03582B09D008239A46A4E7302DA3
:101920009CD1207800F0DF00582897D14FF0100AA2
:1019300065785346023497E73404002030B40D46EE
:10194000034C134601462A46206830BCFFF768BFA7
:1019500030040020024B13B1024800F005B8704774
:1019600000000000751908000146002002460346E9
:1019700000F016B838B5084B084DED1AAC1018BF7A
:10198000ED1805D0013C55F8043D9847002CF9D1DD
:10199000BDE8384000F024B9EC1B0800F01B08003B
:1019A0002DE9F047254C064625688846D5F848417C
:1019B00092469946C4B360681F2817DC411C76B173
:1019C00004EB8003C3F888A0D4F888510122824038
:1019D0001543022EC4F88851C3F808911ED0831C09
:1019E0006160002044F82380BDE8F087144B03B306
:1019F0004FF4C870AFF300800446D0B1D5F8483139
:101A0000002784E888003846C5F848410121C4F819
:101A10008871C4F88C71002EE1D0D1E7D4F88C31F4
:101A20001A43C4F88C21DAE705F5A674C5F84841D5
:101A3000C1E74FF0FF30BDE8F08700BFC41A0800CF
:101A4000000000002323234F4E200A0023232349B4
:101A50006E697469616C697A696E670A00000000DA
:101A60002323234E65772053706565640A000000C8
:101A700023232323546F6F206D7563682064617482
:101A8000612072656365697665640A0023232323F8
:101A90002050617273696E6720537472696E677348
:101AA0003A20000023000000537065656420535401
:101AB0003A2000002053706565642044523A2000AB
:101AC00043000000080000200020202020202020CB
:101AD00020202828282828202020202020202020DE
:101AE00020202020202020202088101010101010EE
:101AF000101010101010101010040404040404043A
:101B000004040410101010101010414141414141D3
:101B100001010101010101010101010101010101B5
:101B200001010101101010101010424242424242C5
:101B30000202020202020202020202020202020285
:101B4000020202021010101020000000000000002D
:101B50000000000000000000000000000000000085
:101B60000000000000000000000000000000000075
:101B70000000000000000000000000000000000065
:101B80000000000000000000000000000000000055
:101B90000000000000000000000000000000000045
:101BA0000000000000000000000000000000000035
:101BB0000000000000000000000000000000000025
:101BC000000000000000000000000000F8B500BFA9
:101BD000F8BC08BC9E46704755190800190108005A
:101BE000F8B500BFF8BC08BC9E467047F500080079
:101BF00000093D000000000000000000F402002089
:101C00005C030020C403002000000000000000006E
:101C100000000000000000000000000000000000C4
:101C2000000000000000000000000000C01A0800D2
:101C300000000000000000000000000000000000A4
:101C40000000000000000000000000000000000094
:101C50000000000000000000000000000000000084
:101C60000000000000000000000000000000000074
:101C70000000000000000000000000000000000064
:101C80000000000000000000000000000000000054
:101C90000000000000000000000000000000000044
:101CA00001000000000000000E33CDAB34126DE6E1
:101CB000ECDE05000B00000000000000000000004A
:101CC0000000000000000000000000000000000014
:101CD0000000000000000000000000000000000004
:101CE00000000000000000000000000000000000F4
:101CF00000000000000000000000000000000000E4
:0820200008000020C81A0800A6
:040000038000000079
:00000001FF
