S01A0000636F6D706173735F61726475696E6F556E6F2E7372656391
S11300000C94C8000C94DA000C94DA000C94DA0016
S11300100C94DA000C94DA000C94DA000C94DA00F4
S11300200C94DA000C94DA000C94DA000C94DA00E4
S11300300C94DA000C94DA000C94DA000C94DA00D4
S11300400C94DA000C94DA000C9449010C94DA0054
S11300500C94DA000C94DA000C94DA000C94DA00B4
S11300600C94DA000C94DA00084AD73B3BCE016EBC
S113007084BCBFFDC12F3D6C74319ABD56833DDAFB
S11300803D00C77F11BED9E4BB4C3E916BAAAABE0A
S1130090000000803F0000407A10F35A00A0724E26
S11300A018090010A5D4E80000E87648170000E419
S11300B00B54020000CA9A3B000000E1F505000061
S11300C080969800000040420F000000A0860100C6
S11300D00000102700000000E80300000000640096
S11300E0000000000A000000000001000000000001
S11300F02C76D888DC674F0823DFC1DFAE59E1B125
S1130100B796E5E3E453C63AE651997696E8E6C233
S11301108426EB898C9B62ED407C6FFCEFBC9C9F3A
S113012040F2BAA56FA5F490055A2AF75C936B6C5C
S1130130F9676DC11BFCE0E40D47FEF520E6B50050
S1130140D0ED902E0300943577050080841E0800BE
S113015000204E0A000000C80C333333330F986E6E
S113016012831141EF8D2114893BE65516CFFEE62B
S1130170DB18D1844B381BF77C1D901DA4BBE424F1
S1130180203284725E228100C9F124ECA1E53D276E
S113019011241FBECFEFD8E0DEBFCDBF21E0A0E029
S11301A0B1E001C01D92A030B207E1F70E947D01C9
S11301B00C942E0E0C940000CF93DF93CDB7DEB7D2
S11301C085EC90E0FC01108284EC90E027E6FC01D1
S11301D0208381EC90E021EC30E0F9012081206162
S11301E0FC01208381EC90E021EC30E0F9012081D6
S11301F02860FC01208382EC90E022EC30E0F901DD
S113020020812660FC01208381EC90E021EC30E029
S1130210F90120812069FC0120837894DF91CF913A
S11302200895CF93DF931F92CDB7DEB78983000083
S113023080EC90E0FC018081882F90E08072992707
S11302400097B1F386EC90E02981FC0120830F90A4
S1130250DF91CF910895CF93DF9300D0CDB7DEB770
S11302609A8389830BC089819A81FC0180810E94D1
S1130270110189819A8101969A83898389819A815E
S1130280FC018081882379F70F900F90DF91CF9143
S113029008951F920F9200905F000F9211242F93E4
S11302A03F934F935F936F937F938F939F93AF93FA
S11302B0BF93EF93FF93CF93DF931F92CDB7DEB736
S11302C086EC90E0FC018081898389810E941C0373
S11302D00F90DF91CF91FF91EF91BF91AF919F91DB
S11302E08F917F916F915F914F913F912F910F90DB
S11302F000925F000F901F901895CF92DF92EF92BB
S1130300FF920F931F93CF93DF93CDB7DEB7A297DE
S11303100FB6F894DEBF0FBECDBF1A8219821C82BD
S11303201B820E94DC0084E290E024E230E0F901C8
S113033020812061FC0120830E948A040E948F088E
S113034084E290E024E230E0F90120812160FC01A4
S113035020831E821D820E94B70880E090E0A0E204
S1130360B2E489879A87AB87BC8720E030E04AE70C
S113037055E469857A858B859C850E94EC0ADC01AD
S1130380CB018D879E87AF87B88B20E030E040E8B3
S11303905FE36D857E858F8598890E946D0988232A
S11303A02CF481E090E09A8B898B3FC020E03FEFF2
S11303B04FE757E46D857E858F8598890E94E10A11
S11303C018164CF520E030E040E251E469857A8566
S11303D08B859C850E94EC0ADC01CB01BC01CD011C
S11303E00E94DE09DC01CB019A8B898B0FC080E966
S11303F091E09C8B8B8B8B899C890197F1F79C8B6B
S11304008B8B89899A8901979A8B898B89899A8997
S1130410009769F714C06D857E858F8598890E9441
S1130420DE09DC01CB019A8B898B89899A899E8BA1
S11304308D8B8D899E890197F1F79E8B8D8B0E9400
S1130440DF088BE090E00E9402069A8389838BE0A8
S113045090E00E9402069C838B8385E290E025E273
S113046030E0F90120812260FC01208389819A8196
S1130470AA2797FDA095BA2FBC01CD010E940C0AB2
S11304806B017C018B819C81919581959109AA27AF
S113049097FDA095BA2FBC01CD010E940C0ADC0186
S11304A0CB01A7019601BC01CD010E941A09DC0110
S11304B0CB012BED3FE049E450E4BC01CD010E94A7
S11304C07109DC01CB0120E030E044E353E4BC01DA
S11304D0CD010E94EC0ADC01CB01BC01CD010E94DC
S11304E0D909DC01CB0198878F8389819A81AA2756
S11304F097FDA095BA2FBC01CD010E940C0ADC0126
S1130500CB019E01295E3F4F890120E030E046E0A7
S113051050E0BC01CD010E94B70BCE0147960E946A
S11305202B0180E20E9411018B819C81AA2797FDF7
S1130530A095BA2FBC01CD010E940C0ADC01CB01AD
S11305409E01295E3F4F890120E030E046E050E003
S1130550BC01CD010E94B70BCE0147960E942B012E
S113056080E20E9411018F819885AA2797FDA095AA
S1130570BA2FBC01CD010E940C0ADC01CB019E0103
S1130580295E3F4F890120E030E046E050E0BC01A5
S1130590CD010E94B70BCE0147960E942B018AE041
S11305A00E941101D8CECF93DF9300D000D000D0A9
S11305B0CDB7DEB79C838B837E836D838B819C81D7
S11305C099237CF48D819E8199235CF42B813C8159
S11305D08D819E81A901481B590BCA019A83898385
S11305E008C02B813C818D819E81820F931F9A8349
S11305F0898389819A81853B91053CF089819A811F
S1130600885691409A8389830CC089819A818C345D
S11306105FEF950734F489819A8188599E4F9A83B4
S1130620898389819A8126960FB6F894DEBF0FBE1E
S1130630CDBFDF91CF910895CF92DF92EF92FF92D9
S1130640CF93DF93CDB7DEB76A970FB6F894DEBFCA
S11306500FBECDBF8A8F1D8219821A821C821B8213
S113066084E290E024E230E0F90120812061FC0181
S113067020830E948A040E948F0884E290E024E28E
S113068030E0F90120812160FC01208332C10E9405
S1130690B70880E090E0A0E2B2E48C879D87AE8743
S11306A0BF8720E030E04AE755E46C857D858E8580
S11306B09F850E94EC0ADC01CB01888B998BAA8B65
S11306C0BB8B20E030E040E85FE3688979898A8960
S11306D09B890E946D0988232CF481E090E09D8B16
S11306E08C8B3FC020E03FEF4FE757E4688979895E
S11306F08A899B890E94E10A18164CF520E030E0B3
S113070040E251E46C857D858E859F850E94EC0ACC
S1130710DC01CB01BC01CD010E94DE09DC01CB016F
S11307209D8B8C8B0FC080E991E09F8B8E8B8E8983
S11307309F890197F1F79F8B8E8B8C899D890197F7
S11307409D8B8C8B8C899D89009769F714C068896F
S113075079898A899B890E94DE09DC01CB019D8B02
S11307608C8B8C899D89998F888F888D998D019721
S1130770F1F7998F888F0E94DF088BE090E00E9448
S113078002069F838E838BE090E00E940206998785
S1130790888785E290E025E230E0F901208122603B
S11307A0FC0120838E819F81AA2797FDA095BA2FF3
S11307B0BC01CD010E940C0A6B017C0188859985DE
S11307C0919581959109AA2797FDA095BA2FBC010F
S11307D0CD010E940C0ADC01CB01A7019601BC01EA
S11307E0CD010E941A09DC01CB012BED3FE049E465
S11307F050E4BC01CD010E947109DC01CB0120E071
S113080030E044E353E4BC01CD010E94EC0ADC0176
S1130810CB01BC01CD010E94D909DC01CB019B872E
S11308208A878981882391F48A858D838A8D282FEC
S1130830332727FD30958D81992787FD9095B90140
S11308400E94D3029C838B8381E0898389818823DE
S113085009F44FC02A853B858B819C812817390771
S113086054F08A8D18163CF08B819C8199231CF0DE
S113087081E08A8332C02A853B858B819C8128173D
S1130880390754F08A8D88233CF48B819C81992309
S11308901CF481E08A8321C02A853B858B819C815D
S11308A08217930754F08A8D88233CF08B819C81B6
S11308B099231CF481E08A8310C02A853B858B81AF
S11308C09C81821793074CF08A8D882334F08B81A6
S11308D09C81992314F081E08A838A81882349F0DA
S11308E085E290E025E230E0F90120812061FC01FD
S11308F020838A81882309F4CACE6A960FB6F894B5
S1130900DEBF0FBECDBFDF91CF91FF90EF90DF90A0
S1130910CF900895CF93DF93CDB7DEB784E290E014
S113092024E230E0F90120812260FC01208384E28A
S113093090E024E230E0F90120812160FC01208371
S113094084E290E024E230E0F90120812B7FFC0175
S11309502083DF91CF910895CF93DF93CDB7DEB796
S1130960A7970FB6F894DEBF0FBECDBF9DA38CA38F
S11309707FA36EA38EA19FA19A83898335C185E24B
S113098090E025E230E0F90120812E7FFC012083F4
S113099081E090E09C01098002C0220F331F0A9479
S11309A0E2F78CA19DA12823392381E090E00980FE
S11309B002C0880F991F0A94E2F72817390751F4E7
S11309C085E290E025E230E0F90120812460FC0119
S11309D0208309C085E290E025E230E0F90120811E
S11309E02B7FFC01208385E290E025E230E0F901D1
S11309F020812160FC01208380E090E0A0E8BFE337
S1130A008B839C83AD83BE832BEA3AEA4AEA50E4A3
S1130A106B817C818D819E810E94EC0ADC01CB017B
S1130A208F839887A987BA8720E030E040E850E4B4
S1130A306B817C818D819E810E94EC0ADC01CB015B
S1130A408B879C87AD87BE8720E030E040E85FE37A
S1130A506F81788589859A850E946D0988231CF4A5
S1130A6081E08F87B6C020E03FEF4FE757E46B8506
S1130A707C858D859E850E94E10A18160CF07FC046
S1130A8020E030E04AE754E46B817C818D819E81D3
S1130A900E947109DC01CB01888B998BAA8BBB8BDB
S1130AA020E030E04AE755E4688979898A899B899E
S1130AB00E94EC0ADC01CB018C8B9D8BAE8BBF8B2F
S1130AC020E030E040E85FE36C897D898E899F896E
S1130AD00E946D0988232CF481E090E0998F888F1F
S1130AE041C020E03FEF4FE757E46C897D898E8950
S1130AF09F890E94E10A18165CF520E030E040E28C
S1130B0051E4688979898A899B890E94EC0ADC010D
S1130B10CB01BC01CD010E94DE09DC01CB01998F20
S1130B20888F0FC080E991E09B8F8A8F8A8D9B8D7F
S1130B300197F1F79B8F8A8F888D998D0197998FF3
S1130B40888F888D998D009769F78BA18F8741C015
S1130B506C897D898E899F890E94DE09DC01CB0125
S1130B60998F888F888D998D9D8F8C8F8C8D9D8D7D
S1130B700197F1F79D8F8C8F8BA18F872AC020E07E
S1130B8030E04FE753E46F81788589859A850E9428
S1130B90E10A1816ACF46B857C858D859E850E94D0
S1130BA0DE09DC01CB019F8F8E8F8E8D9F8D99A3E3
S1130BB088A388A199A10197F1F799A388A30FC0ED
S1130BC06F81788589859A850E94DE09DC01CB01D5
S1130BD08F878F858AA38AA18A95F1F78AA3898151
S1130BE09A8101979A83898389819A8199230CF048
S1130BF0C6CEA7960FB6F894DEBF0FBECDBFDF9169
S1130C00CF9108950F931F93CF93DF93CDB7DEB7A2
S1130C10C854D1090FB6F894DEBF0FBECDBF9E01F4
S1130C20295B3F4FF901918380831A82198284E200
S1130C3090E024E230E0F90120812B7FFC01208345
S1130C40CE01895B9F4FFC01808191819C838B83C2
S1130C5048C285E290E025E230E0F901208121607C
S1130C60FC01208380E090E0A0E8BFE38D839E83B5
S1130C70AF83B8872BEA3AEA4AEA50E46D817E8171
S1130C808F8198850E94EC0ADC01CB0189879A87C1
S1130C90AB87BC8720E030E040E850E46D817E8182
S1130CA08F8198850E94EC0ADC01CB018D879E8799
S1130CB0AF87B88B20E030E040E85FE369857A8550
S1130CC08B859C850E946D0988231CF481E0898BA7
S1130CD0B6C020E03FEF4FE757E46D857E858F85F2
S1130CE098890E94E10A18160CF07FC020E030E0D9
S1130CF04AE754E46D817E818F8198850E94710951
S1130D00DC01CB018A8B9B8BAC8BBD8B20E030E06C
S1130D104AE755E46A897B898C899D890E94EC0A9B
S1130D20DC01CB018E8B9F8BA88FB98F20E030E044
S1130D3040E85FE36E897F89888D998D0E946D09F3
S1130D4088232CF481E090E09B8F8A8F41C020E0BF
S1130D503FEF4FE757E46E897F89888D998D0E9414
S1130D60E10A18165CF520E030E040E251E46A89BB
S1130D707B898C899D890E94EC0ADC01CB01BC0132
S1130D80CD010E94DE09DC01CB019B8F8A8F0FC04D
S1130D9080E991E09D8F8C8F8C8D9D8D0197F1F76B
S1130DA09D8F8C8F8A8D9B8D01979B8F8A8F8A8DC7
S1130DB09B8D009769F78DA1898B41C06E897F89CE
S1130DC0888D998D0E94DE09DC01CB019B8F8A8F6F
S1130DD08A8D9B8D9F8F8E8F8E8D9F8D0197F1F7BE
S1130DE09F8F8E8F8DA1898B2AC020E030E04FE742
S1130DF053E469857A858B859C850E94E10A1816DF
S1130E00ACF46D857E858F8598890E94DE09DC01AE
S1130E10CB0199A388A388A199A19BA38AA38AA1A2
S1130E209BA10197F1F79BA38AA30FC069857A85DB
S1130E308B859C850E94DE09DC01CB01898B898925
S1130E408CA38CA18A95F1F78CA383E290E0FC013A
S1130E508081882F90E084709927009741F08981E0
S1130E609A81880F991F01969A83898306C0898184
S1130E709A81880F991F9A83898385E290E025E2FD
S1130E8030E0F90120812E7FFC01208380E090E096
S1130E90A0E8BFE38EA39FA3A8A7B9A72BEA3AEAC9
S1130EA04AEA50E46EA17FA188A599A50E94EC0AA4
S1130EB0DC01CB018AA79BA7ACA7BDA720E030E04B
S1130EC040E850E46EA17FA188A599A50E94EC0A90
S1130ED0DC01CB018EA79FA7A8ABB9AB20E030E023
S1130EE040E85FE36AA57BA58CA59DA50E946D09DA
S1130EF088231CF481E08AABDCC020E03FEF4FE79D
S1130F0057E46EA57FA588A999A90E94E10A18163D
S1130F100CF091C020E030E04AE754E46EA17FA1D8
S1130F2088A599A50E947109DC01CB018BAB9CAB10
S1130F30ADABBEAB20E030E04AE755E46BA97CA939
S1130F408DA99EA90E94EC0ADC01CB018FAB98AF5E
S1130F50A9AFBAAF20E030E040E85FE36FA978AD15
S1130F6089AD9AAD0E946D0988232CF481E090E04C
S1130F709CAF8BAF45C020E03FEF4FE757E46FA92C
S1130F8078AD89AD9AAD0E94E10A18167CF520E08F
S1130F9030E040E251E46BA97CA98DA99EA90E948E
S1130FA0EC0ADC01CB01BC01CD010E94DE09DC01AD
S1130FB0CB019CAF8BAF0FC080E991E09EAF8DAFAA
S1130FC08DAD9EAD0197F1F79EAF8DAF8BAD9CAD0E
S1130FD001979CAF8BAF8BAD9CAD009769F7CE01A9
S1130FE08A5B9F4FFC0180818AAB63C06FA978AD97
S1130FF089AD9AAD0E94DE09DC01CB019CAF8BAFB9
S11310002BAD3CADCE01CF96FC0131832083CE01C4
S1131010CF96FC01808191810197F1F79E01215CBB
S11310203F4FF90191838083CE018A5B9F4FFC017E
S113103080818AAB3EC020E030E04FE753E46AA5EC
S11310407BA58CA59DA50E94E10A18164CF58E017E
S11310500F5B1F4F6EA57FA588A999A90E94DE0981
S1131060DC01CB01F80191838083CE018D5B9F4F1E
S11310709E012F5B3F4FF90120813181FC013183B7
S11310802083CE018D5B9F4FFC018081918101976C
S1131090F1F79E012D5B3F4FF901918380831CC0C2
S11310A06AA57BA58CA59DA50E94DE09DC01CB0168
S11310B08AABCE018B5B9F4F2AA9FC012083CE0112
S11310C08B5B9F4FFC018081282F2A95F1F7CE017D
S11310D08B5B9F4FFC0120838B819C8101979C83B8
S11310E08B838B819C8199230CF0B3CD89819A8168
S11310F088279870009729F089819A81986F9A833C
S1131100898389819A81C85BDF4F0FB6F894DEBF6B
S11311100FBECDBFDF91CF911F910F910895CF9353
S1131120DF93CDB7DEB784E290E024E230E0F9014A
S113113020812460FC01208385E290E025E230E0F8
S1131140F90120812D7FFC01208363E070E080E0C1
S113115090E00E94AC0485E290E025E230E0F901E1
S113116020812260FC012083DF91CF910895CF93E9
S1131170DF93CDB7DEB784E290E024E230E0F901FA
S113118020812460FC01208385E290E025E230E0A8
S1131190F90120812D7FFC01208363E070E088E069
S11311A090E00E94AC0485E290E025E230E0F90191
S11311B020812260FC012083DF91CF910895CF9399
S11311C0DF9300D0CDB7DEB71A82198284E290E0B3
S11311D024E230E0F90120812460FC01208385E2CF
S11311E090E025E230E0F90120812D7FFC0120838D
S11311F063E070E08CE090E00E94AC0483E090E057
S11312000E9402069A83898389819A810F900F90A4
S1131210DF91CF9108958DD158F080E891E009F4E1
S11312209EEF8ED128F040E851E059F45EEF09C0FA
S113123058C1C0C1E92FE0789BD168F3092E052A73
S1131240C1F3261737074807590738F00E2E07F859
S1131250E02569F0E025E0640AC0EF6307F8009434
S113126007FADB01B9019D01DC01CA01AD01EF936D
S113127047D06DD10AD05F91552331F02BED3FE07B
S113128049E450FD49EC0FC20895DF93DD27B92FDF
S1131290BF7740E85FE31616170648075B0710F4AC
S11312A0D92F93D19F938F937F936F93F8D1E8E6CF
S11312B0F0E01AD14CD12F913F914F915F9198D189
S11312C0DD2349F09058A2EA2AED3FE049EC5FE3C0
S11312D0D0785D27F9D1DF913AC1D9D008F481E003
S11312E008950CD034C12CD140F023D130F021F436
S11312F05F3F19F0F0C051115EC1F3C039D198F3CA
S11313009923C9F35523B1F3951B550BBB27AA2782
S113131062177307840738F09F5F5F4F220F331FF4
S1131320441FAA1FA9F333D00E2E3AF0E0E830D0C0
S113133091505040E695001CCAF729D0FE2F27D0C3
S1131340660F771F881FBB1F261737074807AB0791
S1131350B0E809F0BB0B802DBF01FF2793585F4F06
S11313602AF09E3F510568F0B6C025C15F3FECF3FB
S1131370983EDCF3869577956795B795F7959F5FCB
S1131380C9F7880F911D9695879597F90895E1E01F
S1131390660F771F881FBB1F621773078407BA077E
S11313A020F0621B730B840BBA0BEE1F88F7E095D9
S11313B0089504D06894B111FEC00895E1D088F076
S11313C09F5790F0B92F9927B751A0F0D1F0660F2D
S11313D0771F881F991F1AF0BA95C9F712C0B13048
S11313E081F0E8D0B1E00895E5C0672F782F882711
S11313F0B85F39F0B93FCCF3869577956795B39587
S1131400D9F73EF490958095709561957F4F8F4FF5
S11314109F4F0895E89409C097FB3EF490958095FA
S1131420709561957F4F8F4F9F4F9923A9F0F92FA6
S113143096E9BB279395F695879577956795B79524
S1131440F111F8CFFAF4BB0F11F460FF1BC06F5F0A
S11314507F4F8F4F9F4F16C0882311F096E911C01C
S1131460772321F09EE8872F762F05C0662371F03D
S113147096E8862F70E060E02AF09A95660F771F51
S1131480881FDAF7880F9695879597F90895990F2D
S11314900008550FAA0BE0E8FEEF16161706E8073A
S11314A0F907C0F012161306E407F50798F0621B5B
S11314B0730B840B950B39F40A2661F0232B242B30
S11314C0252B21F408950A2609F4A140A6958FEF4F
S11314D0811D811D089597F99F6780E870E060E0A1
S11314E008959FEF80EC0895DF93CF931F930F939C
S11314F0FF92EF92DF927B018C01689405C0DA2E93
S1131500EF0176D0FE01E894A5912591359145919E
S11315105591AEF3EF01D8D0FE019701A801DA94FA
S113152079F7DF90EF90FF900F911F91CF91DF91AA
S1131530089500240A941616170618060906089535
S113154000240A9412161306140605060895092E9B
S11315500394000C11F4882352F0BB0F40F4BF2B0A
S113156011F460FF04C06F5F7F4F8F4F9F4F08954A
S113157057FD9058440F551F59F05F3F71F0479540
S1131580880F97FB991F61F09F3F79F08795089525
S1131590121613061406551FF2CF4695F1DF08C044
S11315A0161617061806991FF1CF86957105610561
S11315B008940895E894BB2766277727CB0197F909
S11315C0089565DF08F48FEF08959B01AC0160E096
S11315D070E080E89FE385CE0BD0B9CFAADF28F076
S11315E0AFDF18F0952309F076CF7BCF1124E3CF3A
S11315F0BFDFA0F3959FD1F3950F50E0551F629F75
S1131600F001729FBB27F00DB11D639FAA27F00D57
S1131610B11DAA1F649F6627B00DA11D661F829F7E
S11316202227B00DA11D621F739FB00DA11D621F63
S1131630839FA00D611D221F749F3327A00D611D80
S1131640231F849F600D211D822F762F6A2F112462
S11316509F5750408AF0E1F088234AF0EE0FFF1FB5
S1131660BB1F661F771F881F91505040A9F79E3FEC
S1131670510570F030CF9FCF5F3FECF3983EDCF321
S1131680869577956795B795F795E7959F5FC1F729
S1131690FE2B880F911D9695879597F908959B01C8
S11316A0AC019ACF5058BB27AA270ED050CF41DFA8
S11316B030F046DF20F031F49F3F11F41EF411CFD7
S11316C00EF4E095E7FB07CFE92F52DF80F3BA175A
S11316D0620773078407950718F071F49EF56ACFC3
S11316E00EF4E0950B2EBA2FA02D0B01B901900139
S11316F00C01CA01A0011124FF27591B99F0593F7D
S113170050F4503E68F11A16F040A22F232F342FC4
S11317104427585FF3CF469537952795A795F04012
S11317205395C9F77EF41F16BA0B620B730B840B27
S1131730BAF09150A1F0FF0FBB1F661F771F881FDF
S1131740C2F70EC0BA0F621F731F841F48F4879537
S113175077956795B795F7959E3F08F0B3CF939526
S1131760880F08F09927EE0F979587950895EF92C3
S11317700F931F93CF93DF93E80147FF02C034E137
S113178001C034E0E42FFF27E7FDF095F7FF03C025
S1131790F195E195F109E32E022F2E2FAE010E945F
S11317A0D80BCE01DF91CF911F910F91EF90089547
S11317B06F927F929F92AF92BF92CF92DF92EF92FD
S11317C0FF920F931F93CF93DF93CDB7DEB7299783
S11317D00FB6F894DEBF0FBECDBF6A01B22E102F34
S11317E00C3320F4FF24F394F00E02C04CE3F42EE7
S11317F00F2D27E0AE014F5F5F4F0E94560D798198
S1131800272F2970213031F0E1FC06C0E0FC06C02E
S113181060E005C06DE203C06BE201C060E2AE2D82
S1131820A07173FF36C0662311F084E001C083E029
S11318308B1510F4B81A01C0B12CA1110BC0F6011C
S11318408B2D90E2882319F091938150FBCFCB0C20
S1131850D11CB12C662331F0F601608396012F5F11
S11318603F4F6901C6010396E2FE05C02EE4F6016E
S1131870208331E404C02EE6F601208331E631836F
S11318802283FC012B2D30E22223F1F131932150EC
S1131890FBCF72FF40C0662311F084E001C083E0F7
S11318A08B1510F4B81A01C0B12CA1110BC0F601AC
S11318B08B2D90E2882319F091938150FBCFCB0CB0
S11318C0D11CB12C662331F0F601608396012F5FA1
S11318D03F4F6901C6010396E2FE07C029E4F60101
S11318E020832EE4218326E406C029E6F601208322
S11318F02EE6218326E62283FC012B2D30E22223CF
S113190019F031932150FBCFFC01EB0DF11D108236
S11319108EEF9FEFB7C0B1E0611101C0B0E04B2F73
S113192050E01816190624F49C012F5F3F4F02C0A3
S113193021E030E0240F351F112329F0412F50E01E
S11319404F5F5F4F02C040E050E0420F531F2B2D0A
S113195030E04217530714F4B41A01C0B12C2E2DF1
S1131960287159F4F6012B2D30E2222319F031931A
S11319702150FBCFCB0CD11CB12CBB2331F0F60191
S1131980608396012F5F3F4F6901A1110BC0F601DF
S11319902B2D30E3222319F031932150FBCFCB0CB4
S11319A0D11CB12CF80E0A81372F3071A32E74FF8D
S11319B003C0013309F4FA941F142CF42F2D293099
S11319C018F028E001C021E0682F392F97FF02C0EA
S11319D060E030E0462F532F612C712C3EE2932EB1
S11319E0BC01621B71099B01DC01A41BB50BE1E086
S11319F0F0E0EC0FFD1FAE0FBF1FE12EF12CF194B0
S1131A00E194F1084F3FFFEF5F0731F4F601908254
S1131A10B6016F5F7F4F6B01841795074CF0241755
S1131A20350734F4BD01660D771DFB01118101C03A
S1131A3010E341505109FFEF6F1A7F0AB6016F5F3F
S1131A407F4F4E155F0524F0F60110836B01DACF4A
S1131A504817590739F4063320F4053319F4A11053
S1131A6001C011E3F6011083FB018B2D90E2882362
S1131A7019F091938150FBCFFB01EB0DF11D108206
S1131A8080E090E029960FB6F894DEBF0FBECDBF7C
S1131A90DF91CF911F910F91FF90EF90DF90CF9046
S1131AA0BF90AF909F907F906F900895283008F07A
S1131AB027E03327DA01990F311D87FD91600096E5
S1131AC06105710539F432602E5F3D9330E32A9548
S1131AD0E1F708959F3F30F080387105610509F002
S1131AE03C5F3C5F3D93913008F08068911DDF932B
S1131AF0CF931F930F93FF92EF92192F987F969590
S1131B00E92F96959695E90FFF27E051FF4F992706
S1131B103327EE24FF24A701E701059008940794D6
S1131B2028F4360FE71EF81E491F511D660F771F54
S1131B30881F991F0694A1F70590079428F4E70ECF
S1131B40F81E491F561FC11D770F881F991F661F56
S1131B500694A1F70590079428F4F80E491F561F20
S1131B60C71FD11D880F991F661F771F0694A1F701
S1131B700590079420F4490F561FC71FD81F990FCB
S1131B80661F771F881F0694A9F784911095177014
S1131B9041F0D695C79557954795F794E7941A95CC
S1131BA0C1F7E6E9F0E068941590159135916591D7
S1131BB0959105907FE27395E118F10A430B560B5A
S1131BC0C90BD009C0F7E10CF11E431F561FC91FF2
S1131BD0D01D7EF4703311F48A95E6CFE894015059
S1131BE030F0080F0AF40027021708F4202F239579
S1131BF0022F7A3328F079E37D932A95E9F710C010
S1131C007D932A9589F60694979567953795179548
S1131C101794E118F10A430B560BC90BD00998F03D
S1131C2023957E9173957A3308F070E37C932013A7
S1131C30B8F77E9170617D9330F0839571E37D9365
S1131C4070E32A95E1F71124EF90FF900F911F9113
S1131C50CF91DF91992787FD90950895F894FFCF50
S9030000FC
